:1000000001308A0023290000FF00030E8301A100B4
:100010000A08A0008A010408A2007708A300780853
:10002000A4007908A5007A08A600831383128C30F7
:100030008400801D1D288C192E2822088400230886
:10004000F7002408F8002508F9002608FA0020081F
:100050008A00210E8300FF0E7F0E09008A110A120A
:1000600096281308F80008000130D50083161418EC
:1000700037288312D508031947289413540893008E
:10008000941F45280130D5004628D5013A2814167A
:1000900008000B08D4008B13831603178C170C145D
:1000A0000000000083120C087F3903199228031303
:1000B000D50003170D080313D60003170F08031309
:1000C000D70055080C1E62289900560803178D00AA
:1000D0000313570803178F0083168C170C140000A6
:1000E000000083120C0D0E0D7F39031992280313A3
:1000F000D50003170D080313D60003170F080313C9
:10010000D70055080C1E82289900560803178D0049
:100110000313570803178F008D0A03198F0A03135F
:100120004C2803170313D41B8B1708002D30CF0066
:100130008316140883124F05D0005008093A03199A
:10014000AE28203A0319C128253A0319D328203AAA
:100150000319E128043A0319F328F628D3015308B8
:100160001F3C031CBA2828305307840083138001E6
:10017000D30AAF28C80131207808D1000130CA0065
:10018000002931207808D1002830480784008313E3
:1001900051088000C80A48081F3C0318D028C8012D
:1001A0000230CA000029C8012830480784008313A0
:1001B0000008D2005208D4003420C80A0330CA0014
:1001C000002948081F3C0318E628C80128304807C2
:1001D000840083130008D2005208D4003420C80AD7
:1001E0000430CA0000290530CA0000290130C900C6
:1001F000043003178D0001308F00031349200029BC
:100200008C118A110A121D28491943104529D22739
:10021000D2100D050000691963107336613B65103B
:10022000B01C202561372019301835050D050D004B
:100230003630940002308316930094018C1583129B
:100240008A110A123929840183131F3083058130F2
:1002500083169900A6309800903083129800831678
:100260001F149F141F159F1107309C008312CA0191
:100270001829C0308B040B3003178D0001308F001C
:100280000313A7018B1BA7178B134920A71B8B17E1
:0C029000CA0803194C29CA014829630060
:02400E00723FFF
:00000001FF
;PIC16F876A
;CRC=A7AA  CREATED="11-abr-13 10:13"
