:040000000AEF01F012
:08000800046ED8CF05F0E0CF33
:1000100006F00001E9CF0CF0EACF07F0E1CF08F0DD
:10002000E2CF09F0D9CF0AF0DACF0BF0F3CF12F01C
:10003000F4CF13F0FACF14F0F5CF15F0F6CF16F099
:10004000F7CF17F000C00EF001C00FF002C010F0A3
:1000500003C011F09DA630EF00F09EB657EF00F000
:100060000EC000F00FC001F010C002F011C003F08C
:100070000CC0E9FF07C0EAFF078E08C0E1FF09C016
:10008000E2FF0AC0D9FF0BC0DAFF12C0F3FF13C0B2
:10009000F4FF14C0FAFF15C0F5FF16C0F6FF17C035
:1000A000F7FF045006C0E0FF05C0D8FF1000C7BA34
:1000B00003D0206AC7B4208E2050202A1E6E1F6AEB
:1000C0001E507F081DE3C69C9EA6FED7C950C68859
:1000D0001F6E1E2C05D01FC019F0010E1C6E0FD014
:1000E0001E50020805E11FC01AF0020E1C6E07D058
:1000F0001E50030804E11FC01BF0030E1C6E03D04A
:100100001E50800800E19E9630EF00F00C50726F98
:100110006E746F2E2E2E00000A0D54657263656991
:100120007261204C6569747275613A203078255887
:1001300000000A0D536567756E6461204C65697433
:100140007572613A20203078255800000A0D5072EF
:10015000696D65697261204C6569747572613A20D8
:100160003078255800000900F5520DE0F6CF21F057
:10017000F7CF22F0F5509EA8FED7AD6E21C0F6FF56
:1001800022C0F7FFF0D730EF01F00900F6CF22F0E0
:10019000F7CF23F0F5509EA8FED7AD6E22C0F6FF34
:1001A00023C0F7FF212EF1D7120022BE10D00F0E70
:1001B000006E213800160A0E005C03E2300E0026A5
:1001C00002D02250002600509EA8FED7AD6E0F0E22
:1001D00021160A0E215C02E2300E02D0229E22502D
:1001E000212621509EA8FED7AD6E1200EA6A220E8B
:1001F000E96EEF500DE00A0E016E006A002EFED788
:10020000012EFBD75F0E006E002EFED7EF2EF3D728
:1002100064EF01F0F86AD09E078EEA6AE96A330E4D
:10022000AF6EA20EAC6E900EAB6E94869488B00E3C
:10023000C86E360EC66E030E206EC180C182C184A8
:10024000C196196A1A6A1B6A1C6A1D6A1E6A1F6AAD
:100250009D86C00EF2120C0EF66E010EF76E83D75D
:100260001D6A1C50030A05E0010A0FE0030A19E0A9
:1002700024D0180EF66E010EF76E160E216E85DF75
:100280001BC021F0370E226E90DF320EF66E010E8B
:10029000F76E160E216E79DF1AC021F0370E226E2E
:1002A00084DF4C0EF66E010EF76E160E216E6DDFBA
:1002B00019C021F0370E226E78DF1C6A00D0060EBE
:1002C000216EFA0E226E92D7212EFBD7C4D7000ED4
:0402D000016E0300B8
:020000040030CA
:0E00000000260D0E000180000FC00FE00F4023
:00000001FF
;PIC18F252
;CRC=3D71  CREATED="31-out-12 18:34"
