:040000004AEF01F0D2
:08000800046ED8CF05F0E0CF33
:1000100006F00001E9CF0CF0EACF07F0E1CF08F0DD
:10002000E2CF09F0D9CF0AF0DACF0BF0F3CF12F01C
:10003000F4CF13F0FACF14F0F5CF15F0F6CF16F099
:10004000F7CF17F000C00EF001C00FF002C010F0A3
:1000500003C011F0F0A630EF00F0F0B05DEF00F05B
:10006000F0A836EF00F0F0B263EF00F00EC000F041
:100070000FC001F010C002F011C003F00CC0E9FF86
:1000800007C0EAFF078E08C0E1FF09C0E2FF0AC00F
:10009000D9FF0BC0DAFF12C0F3FF13C0F4FF14C086
:1000A000FAFF15C0F5FF16C0F6FF17C0F7FF0450A2
:1000B00006C0E0FF05C0D8FF1000F090010E196ED9
:1000C000F09036EF00F0F092010E1A6EF09236EFDB
:1000D00000F00C436865636B203C2D20657874311B
:1000E0000A0D53656E6420203C2D20657874320A19
:1000F0000D006578743100000C496E696369616EAA
:10010000646F2030782558000A0D4E616F207265AB
:10011000706F6E64656E646F00000A0D4F6B0000B7
:100120006578743100000C457363726576656E64A2
:100130006F20307825580A656D203078255820309A
:1001400078414100204572720000EA6A1E0EE96E95
:10015000EF500DE00A0E016E006A002EFED7012E50
:10016000FBD75F0E006E002EFED7EF2EF3D71200E6
:10017000080E016E216A20C000F00050211A0032E2
:10018000012EFBD79EA8FED7FE0EAC1621B0AC8088
:1001900020C0ADFF12000900F5520CE0F6CF1DF0B3
:1001A000F7CF1EF0F5CF20F0E3DF1DC0F6FF1EC035
:1001B000F7FFF1D712000900F6CF1EF0F7CF1FF0BE
:1001C000F5CF20F0D5DF1EC0F6FF1FC0F7FF1D2EB4
:1001D000F2D712001EBE0FD00F0E006E1D38001693
:1001E0000A0E005C03E2300E002602D01E500026EC
:1001F00000C020F0BDDF0F0E1D160A0E1D5C02E2CE
:10020000300E02D01E9E1E501D261DC020F0B0DFF5
:100210001200C69E9E9623C0C9FF020EC6BE05D020
:100220009EA6FED7000EC5BC010E016E12002280F4
:10023000C580C5B0FED721C023F0EBDF015022906E
:1002400001B02280C584C5B4FED7000E22B0010ED5
:10025000016E12001DC021F0EADF015204E0FF0E22
:10026000016E16D015D0C580C5B0FED71DC023F0D5
:10027000D0DF1EC023F0CDDF1FC023F0CADF20C0B7
:1002800023F0C7DFC584C5B4FED7000E016E00D0D1
:10029000E8EF01F0F86AD09E078EEA6AE96A330E49
:1002A000AF6EE20EAC6ED00EAB6E94869488070EE5
:1002B000C86E280EC66EC78EC79CC180C182C1841D
:1002C000C196196A1A6AF19EF086F19AF088F1983F
:1002D000C00EF212020E1D6EFA0E1E6E36DF1D2EBD
:1002E000FBD7D20EF66E000EF76E55DF195239E0CD
:1002F000196A1B6AF20EF66E000EF76E4CDF020EE4
:100300001D6EFA0E1E6E21DF1D2EFBD7F80EF66E47
:10031000000EF76E0D0E1D6E4EDFB00E1D6E370E09
:100320001E6E58DFB00E216E82DF01C01BF01B5223
:1003300006E0080EF66E010EF76E2DDF05D01A0EE0
:10034000F66E010EF76E27DF040E1D6EFA0E1E6E9E
:10035000FCDE1D2EFBD71B5202E01952E3E0196AA6
:100360004AD01A5248E01A6A200EF66E010EF76E55
:1003700012DF020E1D6EFA0E1E6EE7DE1D2EFBD77B
:10038000260EF66E010EF76E0E0E1D6E14DF550E64
:100390001D6E370E1E6E1EDF360EF66E010EF76EE8
:1003A000060E1D6E08DF010E1D6E370E1E6E12DF6B
:1003B0003E0EF66E010EF76E050E1D6EFCDEB00EE3
:1003C0001D6E010E1E6E550E1F6EAA0E206E42D7B8
:1003D00001C01CF01C3C06D0440EF66E010EF76EF8
:1003E000DADE09D0200E206EC3DE4F0E206EC0DE96
:1003F0006B0E206EBDDE040E1D6EFA0E1E6EA5DEA7
:0C0400001D2EFBD76ED7000E016E03000E
:020000040030CA
:0E00000000260D0E000180000FC00FE00F4023
:00000001FF
;PIC18F252
;CRC=2B8A  CREATED="31-out-12 18:34"
