:1000000001308A00AA29000069196310ED30733AA3
:10001000653920183910CA306E103218B01A8A06A5
:100020008A0600000D05D2326132A03772105739AE
:10003000693A651D20000D05D630EC3A651DA01209
:100040006C2C0D0500000D05CE327710311B2D31C3
:10005000693A203B6136F5323A100001A0152008BC
:1000600083168700831220162008831687008312C8
:100070008A110A12D1290B08A4008B1383160317C7
:100080008C170C140000000083120C087F39031930
:1000900084280313A50003170D080313A6000317F4
:1000A0000F080313A70025080C1E542899002608E2
:1000B00003178D000313270803178F0083168C176F
:1000C0000C140000000083120C0D0E0D7F39031973
:1000D00084280313A50003170D080313A6000317B4
:1000E0000F080313A70025080C1E74289900260882
:1000F00003178D000313270803178F008D0A0319B8
:100100008F0A03133E2803170313A41B8B17080041
:1001100094138C11280893000230941B96288C1D90
:100120008F2800308316111B01308312F80008005D
:1001300014138316911591199B2877189112771C27
:1001400091161116111AA22883121308F80008003C
:10015000A401A501831611141118AC2803308312D1
:10016000A80088200130F70098207808A400F70143
:1001700098207808A500831611151119BD2883123F
:100180002508FA002408F8002508F9008A110A1247
:10019000032A0B08A5008B13831603178C170C1466
:1001A000000000000318FC2883120C087F39031399
:1001B000A60003170D080313A70003170F08031366
:1001C000A80026080C1EE2289900270803178D00B6
:1001D0000313280803178F0083168C170C140000D4
:1001E000000083120313A40BF628F92883160317C3
:1001F000FC281C298316031783120C0D0E0D7F3962
:100200000313A60003170D080313A70003170F0815
:100210000313A80026080C1E0B29990027080317B2
:100220008D000313280803178F008D0A03198F0A06
:1002300003100313A40BCC28A51B8B178A110A12D9
:10024000112AA51B34290F30F700240EF7050A30B8
:10025000770203182E293030F70730292508F707D1
:1002600077080C1E312999000F30A4050A302402AA
:1002700003183C2930303E29A5132508A40724087B
:100280000C1E4029990008008C1E44291A08A80059
:1002900028080C1E492999002808393C031C5529B7
:1002A00030302802F800652965292808603C0318C9
:1002B000602928087A3C031C60292808DF39612955
:1002C0002808BF3E0A3EF800652908004421780846
:1002D000A70044217808A6002608DD3C031D7429E8
:1002E0002708F8007C297C29270EF700F030F70555
:1002F00077082607F8007C29080066217808A50001
:1003000066217808A4002508FA002408F8002508CA
:10031000F9008A110A12302A8316111411188E2935
:1003200002308312A80088202408A600A701240810
:10033000A8008820A6012508A700A600A701260876
:10034000A8008820831611151119A42983128A1177
:100350000A12412A840183131F30830581308316DA
:100360009900A6309800903083129800FF30A000CA
:10037000A0152008831687008312201620088316F4
:10038000870031309300283083129400831694172D
:1003900014131F149F141F159F1107309C00831204
:1003A0002E28043003178D0000308F0003133B20EC
:1003B000123003178D0000308F0003133B208C1E7A
:1003C000DF291A08A1002108603C0318EE29210842
:1003D0007A3C031CEE292108DF39EF292108A1000E
:1003E00021080C1EF12999002108523C0319FC290F
:1003F0002108573C031DD8292108523C031D242AFB
:10040000A301A201A8287908A3007808A2001B3044
:1004100003178D0000308F00031009300313A40070
:10042000C9282308A4003730A50021212208A400F0
:100430003730A50021210D300C1E1C2A99000A30EE
:100440000C1E202A9900412A2108573C031D412AED
:10045000233003178D0000308F0003133B207D29CC
:100460007908A3007808A2000A300C1E352A9900EA
:100470000D300C1E392A99002308A5002208A4007B
:060480008C29D82963005D
:02400E00723FFF
:00000001FF
;PIC16F876A
;CRC=6826  CREATED="11-abr-13 10:16"
