:0400000011EF01F00B
:08000800046ED8CF05F0E0CF33
:1000100006F00001E9CF0CF0EACF07F0E1CF08F0DD
:10002000E2CF09F0D9CF0AF0DACF0BF0F3CF12F01C
:10003000F4CF13F0FACF14F0F5CF15F0F6CF16F099
:10004000F7CF17F000C00EF001C00FF002C010F0A3
:1000500003C011F09DA630EF00F09EB657EF00F000
:100060000EC000F00FC001F010C002F011C003F08C
:100070000CC0E9FF07C0EAFF078E08C0E1FF09C016
:10008000E2FF0AC0D9FF0BC0DAFF12C0F3FF13C0B2
:10009000F4FF14C0FAFF15C0F5FF16C0F6FF17C035
:1000A000F7FF045006C0E0FF05C0D8FF1000276A24
:1000B000C7BA03D01D6AC7B41D8E1D501D2A286EF5
:1000C00028507F081DE3C69C9EA6FED7C950C6884F
:1000D000276E282C05D027C019F0010E1C6E0FD0FA
:1000E0002850020805E127C01AF0020E1C6E07D046
:1000F0002850030804E127C01BF0030E1C6E03D038
:100100002850800800E19E9630EF00F0080E016E46
:10011000256A24C000F00050251A0032012EFBD7BA
:100120009EA8FED7FE0EAC1625B0AC8024C0ADFF55
:1001300012002550016A245C03E224C000F00CD0B8
:10014000006A080E266E243600362550005CD8B0B2
:10015000006E0136262EF7D71200200E1FA8300E93
:10016000206E1EC000F01EAE07D0001E002A00C088
:100170001EF02D0E206E1F8E01501EC024F0640E46
:10018000256ED7DF00C01EF0300E0124216E1EC088
:1001900024F00A0E256ECDDF300E0024236E300EC3
:1001A0000124226E20C000F01FA602D01FAE1F94B3
:1001B0001FB80BD01FAE22D01FB420D000C021F03A
:1001C0001FB21CD000C022F019D0300E215C16E105
:1001D00000C021F0200E206E1FA604D01F941F82A5
:1001E0001FAE1F92300E225C09E100C022F0200EEB
:1001F000216E1FA6F7D71F921FAE1F901FA403D01A
:1002000020C024F083DF1FA203D021C024F07EDFB2
:100210001FA003D022C024F079DF23C024F076DFB2
:100220001200F86AD09E078EEA6AE96A330EAF6E52
:10023000E20EAC6ED00EAB6E94869488B00EC86E93
:10024000360EC66E030E1D6EC180C182C184C1967A
:10025000196A1A6A1B6A1C6A9D86C00EF2121C502B
:10026000030A05E0010A11E0030A17E01BD0090E9A
:10027000246E4CDF090E246E49DF090E246E46DF22
:100280001BC01EF01F0E1F6E68DF090E246E3EDFBE
:100290001AC01EF01F0E1F6E60DF19C01EF01F0E69
:1002A0001F6E5BDF1C6A00D0DAD7000E016E030000
:020000040030CA
:0E00000000260D0E000180000FC00FE00F4023
:00000001FF
;PIC18F252
;CRC=589C  CREATED="31-out-12 14:55"
