:0400000055EF01F0C7
:08000800046ED8CF05F0E0CF33
:1000100006F00001E9CF0CF0EACF07F0E1CF08F0DD
:10002000E2CF09F0D9CF0AF0DACF0BF0F3CF12F01C
:10003000F4CF13F0FACF14F0F5CF15F0F6CF16F099
:10004000F7CF17F000C00EF001C00FF002C010F0A3
:1000500003C011F0F0A630EF00F0F0B05DEF00F05B
:10006000F0A836EF00F0F0B262EF00F00EC000F042
:100070000FC001F010C002F011C003F00CC0E9FF86
:1000800007C0EAFF078E08C0E1FF09C0E2FF0AC00F
:10009000D9FF0BC0DAFF12C0F3FF13C0F4FF14C086
:1000A000FAFF15C0F5FF16C0F6FF17C0F7FF0450A2
:1000B00006C0E0FF05C0D8FF1000F0901980F09056
:1000C00036EF00F0F0921982F09236EF00F00C203B
:1000D0004578743120636865636B0A204578743213
:1000E0002073656E743A00000C496E696369616E35
:1000F000646F2030782558000A204E616F207265A9
:10010000706F6E64656E646F00000C45736372659A
:1001100076656E646F20307825580A656D203078DA
:100120002558203A00004572726F72004F6B000034
:10013000080E016E216A20C000F00050211A003222
:10014000012EFBD79EA8FED7FE0EAC1621B0AC80C8
:1001500020C0ADFF12000900F5520CE0F6CF1DF0F3
:10016000F7CF1EF0F5CF20F0E3DF1DC0F6FF1EC075
:10017000F7FFF1D71200EA6A1E0EE96EEF500DE0AC
:10018000020E016E006A002EFED7012EFBD7970EDD
:10019000006E002EFED7EF2EF3D712000900F6CF27
:1001A0001EF0F7CF1FF0F5CF20F0C2DF1EC0F6FF24
:1001B0001FC0F7FF1D2EF2D712001EBE0FD00F0E6C
:1001C000006E1D3800160A0E005C03E2300E002699
:1001D00002D01E50002600C020F0AADF0F0E1D1610
:1001E0000A0E1D5C02E2300E02D01E9E1E501D261D
:1001F0001DC020F09DDF1200C69E9E9622C0C9FF42
:10020000020EC6BE05D09EA6FED7000EC5BC010ECE
:10021000016E12002180C580C5B0FED720C022F03B
:10022000EBDF0150219001B02180C584C5B4FED719
:10023000000E21B0010E016E12001DC020F0EADF99
:10024000015204E0FF0E016E1BD01AD0C580C5B06C
:10025000FED71DC022F0D0DF1EC022F0CDDFC58248
:10026000C5B2FED7010E1D24206E226EC5DF1FC051
:1002700022F0C2DFC584C5B4FED7000E016E00D0E7
:10028000DCEF01F0EF520FE0EACF1FF0E9CF1EF0F4
:10029000EFCF20F04DDF1FC0EAFF1EC0E9FFE92AC3
:1002A000D8B4EA2AEFD7F9EF01F0F86AD09E078EAA
:1002B000EA6AE96A0C0EAF6EE20EAC6ED00EAB6E5F
:1002C00094869488C86A280EC66EC78EC79CC18063
:1002D000C182C184C196199019921A6A1B6AF0866C
:1002E000F19AF088F198C00EF212CE0EF66E000E62
:1002F000F76E31DF19A031D01C90020E1D6EFA0E80
:100300001E6E39DF1D2EFBD71990E80EF66E000E1B
:10031000F76E0D0E1D6E42DFB00E1D6E370E1E6E97
:100320004CDFB00E206E76DF1C9001B01C801CA04C
:1003300007D0F80EF66E000EF76E0DDF1A0609D024
:100340000A0E206EF5DE4F0E206EF2DE6B0E206E72
:10035000EFDE1CB0E6D719B0E4D719A24AD0020EDE
:100360001D6EFA0E1E6E07DF1D2EFBD719920A0EA8
:10037000F66E010EF76E0E0E1D6E10DF550E1D6E21
:10038000370E1E6E1ADF1A0EF66E010EF76E060E8F
:100390001D6E04DF010E1D6E370E1E6E0EDF200E69
:1003A000206EC6DE3A0E206EC3DEB00E1D6E010E4C
:1003B0001E6E550E1F6E41D701C01BF0020E1D6E42
:1003C000FA0E1E6ED8DE1D2EFBD71B3C04D0010E8C
:1003D000036E260E03D0010E036E2C0E1D6E200E32
:1003E000206EA6DE200E206EA3DEEA6A1DC0E9FFA5
:0A03F00049D77BD7000E016E030011
:020000040030CA
:0E00000000220D0E000180000FC00FE00F4027
:00000001FF
;PIC18F252
;CRC=798B  CREATED="29-Oct-12 10:11"
