:040000004AEF01F0D2
:08000800046ED8CF05F0E0CF33
:1000100006F00001E9CF0CF0EACF07F0E1CF08F0DD
:10002000E2CF09F0D9CF0AF0DACF0BF0F3CF12F01C
:10003000F4CF13F0FACF14F0F5CF15F0F6CF16F099
:10004000F7CF17F000C00EF001C00FF002C010F0A3
:1000500003C011F0F0A630EF00F0F0B05DEF00F05B
:10006000F0A836EF00F0F0B263EF00F00EC000F041
:100070000FC001F010C002F011C003F00CC0E9FF86
:1000800007C0EAFF078E08C0E1FF09C0E2FF0AC00F
:10009000D9FF0BC0DAFF12C0F3FF13C0F4FF14C086
:1000A000FAFF15C0F5FF16C0F6FF17C0F7FF0450A2
:1000B00006C0E0FF05C0D8FF1000F090010E196ED9
:1000C000F09036EF00F0F092010E1A6EF09236EFDB
:1000D00000F00C436865636B203C2D20657874311B
:1000E0000A0D53656E6420203C2D20657874320A19
:1000F0000D006578743100000C496E696369616EAA
:10010000646F2030782558000A0D4E616F207265AB
:10011000706F6E64656E646F00000A0D4F6B0000B7
:100120006578743100000C457363726576656E64A2
:100130006F20307825580A656D20307825582000CA
:10014000204572720000EA6A1E0EE96EEF500DE063
:100150000A0E016E006A002EFED7012EFBD75F0E3D
:10016000006E002EFED7EF2EF3D71200080E016EA0
:10017000216A20C000F00050211A0032012EFBD766
:100180009EA8FED7FE0EAC1621B0AC8020C0ADFFFD
:1001900012000900F5520CE0F6CF1DF0F7CF1EF06B
:1001A000F5CF20F0E3DF1DC0F6FF1EC0F7FFF1D74B
:1001B00012000900F6CF1EF0F7CF1FF0F5CF20F0A8
:1001C000D5DF1EC0F6FF1FC0F7FF1D2EF2D71200AD
:1001D0001EBE0FD00F0E006E1D3800160A0E005CFA
:1001E00003E2300E002602D01E50002600C020F090
:1001F000BDDF0F0E1D160A0E1D5C02E2300E02D08E
:100200001E9E1E501D261DC020F0B0DF1200C69E8F
:100210009E9622C0C9FF020EC6BE05D09EA6FED77E
:10022000000EC5BC010E016E12002180C580C5B054
:10023000FED720C022F0EBDF0150219001B02180D9
:10024000C584C5B4FED7020E006E002EFED7000096
:10025000000E21B0010E016E12001DC020F0E5DF7E
:10026000015204E0FF0E016E13D012D0C580C5B05C
:10027000FED71DC022F0CBDF1EC022F0C8DF1FC09A
:1002800022F0C5DFC584C5B4FED7000E016E00D0D4
:10029000E2EF01F0F86AD09E078EEA6AE96A330E4F
:1002A000AF6EE20EAC6ED00EAB6E94869488070EE5
:1002B000C86E280EC66EC78EC79CC180C182C1841D
:1002C000C196196A1A6AF19EF086F19AF088F1983F
:1002D000C00EF212020E1D6EFA0E1E6E34DF1D2EBF
:1002E000FBD7D20EF66E000EF76E53DF195239E0CF
:1002F000196A1B6AF20EF66E000EF76E4ADF020EE6
:100300001D6EFA0E1E6E1FDF1D2EFBD7F80EF66E49
:10031000000EF76E0D0E1D6E4CDFB00E1D6E370E0B
:100320001E6E56DFB00E206E80DF01C01BF01B5228
:1003300006E0080EF66E010EF76E2BDF05D01A0EE2
:10034000F66E010EF76E25DF040E1D6EFA0E1E6EA0
:10035000FADE1D2EFBD71B5202E01952D7E0196AB4
:1003600044D01A5242E01A6A200EF66E010EF76E61
:1003700010DF020E1D6EFA0E1E6EE5DE1D2EFBD77F
:10038000260EF66E010EF76E0E0E1D6E12DF550E66
:100390001D6E370E1E6E1CDF360EF66E010EF76EEA
:1003A000060E1D6E06DF010E1D6E370E1E6E10DF6F
:1003B000200E206EDBDEB00E1D6E010E1E6E550E81
:1003C0001F6E4BD701C01CF01C3C06D0400EF66ED1
:1003D000010EF76EDEDE09D0200E206EC7DE4F0E56
:1003E000206EC4DE6B0E206EC1DE040E1D6EFA0E92
:1003F0001E6EA9DE1D2EFBD774D7000E016E030002
:020000040030CA
:0E00000000260D0E000180000FC00FE00F4023
:00000001FF
;PIC18F252
;CRC=C060  CREATED="31-out-12 14:57"
